:020000040800F2
:10000000E8060020D5000008611100085D10000816
:1000100000000000000000000000000000000000E0
:10002000000000000000000000000000AB1100080C
:100030000000000000000000A9110008AD11000838
:100040000501000805010008050100080501000878
:100050000501000805010008050100080501000868
:100060000501000805010008050100080501000858
:100070000501000805010008050100080501000848
:100080000501000800000000000000000501000854
:100090000000000005010008050100080501000836
:1000A0000000000005010008050100080501000826
:1000B0008116000800000000050100080501000885
:1000C0000348854600F048F800480047F916000844
:1000D000E80600200C4880F308880C480168090EE7
:1000E0000B4A914205D10B480B4901600B480C4962
:1000F00001600C4880470C480047FEE7FEE7FEE73A
:10010000FEE7FEE7FEE70000E8060020040000002E
:100110001F00000018100240010000000000014014
:100120000000000031120008C100000830B50B4685
:10013000014600202022012409E00D46D5409D42C1
:1001400005D31D469540491B254695404019154647
:10015000521E002DF1DC30BD064C0125064E05E097
:10016000E36807CC2B430C3C98471034B442F7D3D8
:10017000FFF7AAFF80170008A017000870B5002439
:10018000014620314A78022A03D0042181630124E8
:1001900016E0026813680E25AB431360026813680B
:1001A0005B085B0013600122056C1346AB40C56B16
:1001B0006B604A7000220A70416B002900D08847AA
:1001C000204670BD31B500F0B3F8009C0546601CB8
:1001D00000D0641C00F0ACF8401BA042FAD338BD3C
:1001E000F8B5002389E001249C402A46A446224019
:1001F0007ED04C68022C01D0122C0CD1DC08A4005B
:1002000027183C6A5D07ED0E0F26AE40B4430E6919
:10021000AE4026433E6205685E000324B4400F7979
:10022000A543BF07BF0FB7402F4307604D68012D9F
:1002300005D0022D03D0112D01D0122D0ED18568CD
:10024000CF68A543B7402F43876047686546AF43F3
:100250000D79ED06ED0F9D403D434560C568A54312
:100260008C68B4402C43C4604C68E40044D5264CF0
:10027000A56901263543A561A4699D083440009411
:10028000224CAD002F19BC689D072E0F0F25B540DD
:10029000AC430925ED06A84201D100250AE01C4D1A
:1002A000A84201D1012505E01A4DA84201D102253D
:1002B00000E00525B5402543BD60174C25684E6814
:1002C0009543F60300D51543256065684E68954350
:1002D000B60300D515436560A5684E689543F602E0
:1002E00000D51543A560E5684E689543B60200E069
:1002F00002E000D51543E5605B1C0A681546DA404C
:1003000000D070E7F8BD000000100240000001407E
:1003100000040048000800480004014042694A40C7
:1003200042617047002A01D0816170478162704745
:1003300001480068704700000000002070B50246C8
:1003400040325378202B1CD11378012B19D0012374
:10035000137024245470046825689D432560046844
:1003600025681E03B5432560046825680D43256094
:10037000006801681943016020205070002010704F
:1003800070BD022070BD70B5024640325378202BFC
:100390001BD11378012B18D001241470242353701F
:1003A00003681D68A5431D6005682B680F2636028B
:1003B000B3430902194329600068016821430160C1
:1003C000202050700020107070BD022070BD000011
:1003D00070B5040006D02546403568780026002810
:1003E00002D005E0012070BD2E70204600F04AF8D2
:1003F00024206870206801684908490001600F21C5
:100400006068090688432168086121688A680120BC
:10041000C00382438A60E1680129A16808D02122D3
:100420009202114322689160E168022902D005E03E
:100430000143F7E701212268C902516021684A6837
:100440000F4B1A434A602168CA688243CA606169D7
:1004500020690843A169090208432168C860216A2C
:10046000E06908432168086020680168012211439F
:1004700001606664202068702663AE70002070BD45
:100480000080000200B500680D4987B0884214D191
:100490001221019103200121009002910491039007
:1004A00069460848FFF79CFE0748C26901214905D3
:1004B0000A43C261C0690840059007B000BD000052
:1004C0000054004000140048001002400248016837
:1004D000491C0160704700000000002010B506486C
:1004E0000168102211430160002000F007F800F0BD
:1004F00017F8002010BD00000020024010B504468F
:1005000000F0D8F97D21C900FFF710FE00F026FCAD
:1005100000222146501E00F037F8002010BD0000D8
:1005200008B5124881690122114381618169114036
:100530000091C26901040A43C261C06900220840F7
:1005400000901146501F00F01FF800221146901E27
:1005500000F01AF800221146501E00F015F8044869
:10056000016810221143016008BD00000010024024
:1005700000000140C106C90E012088400149086001
:100580007047000000E100E010B500F0EBFD10BD89
:10059000F8B500270446002807D02646FF36E13686
:1005A000707A0025002802D005E00120F8BD3572E0
:1005B000204600F03BF80320707201210BE01C2064
:1005C000784302191046203041720772C572556394
:1005D00095637F1CD5636068B842F0D800200BE0BB
:1005E0001C2242431219FF32013255721072D57229
:1005F00055619561401CD56162688242F0D82068DF
:10060000403001802068403005802068403085807F
:10061000206840300582BF202268000240321080EE
:100620002034257171720020F8BD000008B5006803
:100630000649884208D10648C2690121C9050A4312
:10064000C261C0690840009008BD0000005C004025
:1006500000100240F8B5044600683E4DC00352D574
:10066000E8690026C00007D4E96928040143E9616C
:10067000E96901400126009137480168C90510D495
:100680000168821511430160FFF752FE074604E03E
:10069000FFF74EFEC01B642824D82F480068C00511
:1006A000F6D5286A03273F02384020D061683940D8
:1006B00081421CD0286A2A6AB843012109040A43EE
:1006C0002A622A6A8A432A622862C0070FD0FFF78B
:1006D0002FFE009008E0FFF72BFE0099411A1F48FB
:1006E000814201D90320F8BD286A8007F3D5286A22
:1006F0006168B84308432862002E04D0E9690120EC
:1007000000078143E9612078C00705D0286BA16804
:1007100080088000084328632078800605D5286B70
:1007200010218843E168084328632068800305D5C9
:10073000286B80218843616908432863208840052D
:1007400005D5286B40218843216908432863002090
:10075000F8BD000000100240007000408813000047
:10076000F8B505464E480E460068C007C00FB042B7
:100770000AD24B48016849084900314301600068CA
:10078000C007C00FB04270D12878464C800705D50D
:100790006068F0218843A968084360602878C00732
:1007A00053D06868012817D0022818D0032819D020
:1007B00021688907002958DA61688908890001439E
:1007C0006160FFF7B5FD69680746012913D002296A
:1007D0001DD0032927D034E021688903EAE7216886
:1007E0008901E7E7616BC903E4E7FFF7A1FDC11BDE
:1007F0002D48814223D860680007800F0128F4D17A
:1008000023E0FFF795FDC11B2748814217D8606898
:100810000007800F0228F4D117E0FFF789FDC11B04
:10082000214881420BD860680007800F0328F4D16B
:100830000BE0FFF77DFDC11B1B48814201D903205E
:10084000F8BD60680007800FF3D115480168C9073B
:10085000C90FB1420BD90168490849003143016011
:100860000068C007C00FB04201D00120F8BD287851
:10087000400706D56068072109028843E9680843F4
:10088000606000F02DF86168084A0906090F515CA4
:10089000C840074908600020FFF730FE0020F8BD7F
:1008A0000020024000100240881300006817000872
:1008B0000400002001480068704700000400002088
:1008C0000448054900684968044A4905490F515CD4
:1008D000C84070470400002000100240781700084C
:1008E00030B516A30FCB89B06C460FC417A30FCB3E
:1008F0000FC41A494A680C20144604401848042CB6
:1009000005D0184B082C04D00C2C00D1184609B087
:1009100030BD9402240F6D462C5DC96A04AD0907F1
:10092000090FD203695C920F022A02D0032A00D178
:100930001846FFF7FBFB6043E9E7000002030405EC
:10094000060708090A0B0C0D0E0F10100102030414
:1009500005060708090A0B0C0D0E0F1000100240C7
:1009600000127A00006CDC02FEB504460078F04EFE
:10097000F04DC00748D068680007800F01281FD0DD
:1009800068680007800F022804D16868C003800FE0
:10099000022815D06168012919D00120800400299E
:1009A00001D0052917D02968B143296029688143FE
:1009B0002960606800281BD0FFF7BAFC074613E0E7
:1009C0002868800320D56068002876D01CE028685D
:1009D00030432860EDE7296801432960F7E7FFF716
:1009E000A7FCC01B642869D828688003F7D50BE0F2
:1009F000FFF79EFC074604E0FFF79AFCC01B642843
:100A0000F1D828688003F7D4207880073ED568683D
:100A10000007800F14D068680007800F022804D1F7
:100A20006868C003800F01280AD0E06800282868A1
:100A30001DD0012108432860FFF77AFC07460BE030
:100A4000286880070BD5E068012836D107E0FFF75A
:100A50006FFCC01B0228C6D828688007F7D5286815
:100A6000F82188432169C900084328600EE0400846
:100A700040002860FFF75CFC074604E0FFF758FCE5
:100A8000C01B0228AFD828688007F7D42078000759
:100A900024D5E0690028686A11D001210843686202
:100AA000FFF746FC074604E0FFF742FCC01B0228A4
:100AB00099D8686A8007F7D510E036E1D1E04008A0
:100AC00040006862FFF734FC074604E0FFF730FCA3
:100AD000C01B022887D8686A8007F7D420780427CB
:100AE0004007002861DA00200190E869C00008D4BE
:100AF000E969B8060143E961E96901400120009113
:100B000001908D480168C90511D40168821511430F
:100B10000160FFF70DFC009005E0FFF709FC00996C
:100B2000401A642897D884480068C005F5D5A068A5
:100B300001280AD0002801D0052811D0286A4008D1
:100B400040002862286AB84302E0286A012108436D
:100B50002862A068002812D0FFF7EAFB00900AE0A4
:100B6000286A38432862F0E7FFF7E2FB0099411A50
:100B70007248814275D8286A8007F5D50DE0FFF7E5
:100B8000D7FB009006E0FFF7D3FB0099411A6B48B2
:100B9000814266D8286A8007F5D40198002804D0DD
:100BA000E969012000078143E9612078C00635D555
:100BB000606901280CD0401D686B24D038436863FD
:100BC000686B400840006863FFF7B2FB074622E00D
:100BD000686B38436863686B012108436863FFF7FB
:100BE000A7FB074604E0FFF7A3FBC01B022838D889
:100BF000686B8007F7D5686BF8218843A169C90045
:100C0000084368630AE0B8436863F4E7FFF790FBC2
:100C1000C01B022825D8686B8007F7D4207880068F
:100C200037D568680007800F032813D0686800076D
:100C3000800F022804D16868C003800F032809D000
:100C4000206A0028686B16D030436863FFF770FB9A
:100C500006460CE0686BC0031BD5206A012864D1EE
:100C600017E05BE0FFF764FB801B022856D8686B37
:100C7000C003F7D50DE0B0436863FFF759FB0646A4
:100C800004E0FFF755FB801B022847D8686BC003C0
:100C9000F7D4606A002846D069680907890F0229DD
:100CA00043D0012636060228286805D0B0432860C4
:100CB000FFF73EFB044633E0B0432860FFF738FB04
:100CC000074604E0FFF734FBC01B022826D828683B
:100CD0008001F7D4E86A216B000900010843E8624B
:100CE000A16AE06A084369687B22D2039143084302
:100CF0006860286830432860FFF71AFB044604E068
:100D0000FFF716FB001B022808D828688001F7D5DA
:100D100009E0FFF70DFB001B022801D90320FEBDEF
:100D200028688001F5D40020FEBD0120FEBD000032
:100D30000000010000100240007000408813000015
:100D4000042204490428086902D0904308617047CE
:100D50001043FBE700E000E070470000094910B5D0
:100D6000401E884201D9012010BD074C606103215B
:100D7000081F00F0F7F90020A06107202061002083
:100D800010BD0000FFFFFF0000E000E010B5FFF71E
:100D9000E3FF10BD70477047F8B503680446D86993
:100DA000196805072D0F07D1820605D58A0603D5D8
:100DB000204600F02BFBF8BD9A68002D64D0D507C3
:100DC000ED0FFF2621360E402E435DD0C60706D01C
:100DD000CE0504D501261E62E36E3343E366870722
:100DE00002230426002F06DAD70704D027683B62C7
:100DF000E76E3743E766470706D5D20704D0226877
:100E00001662E26E1A43E266020709D520220A4002
:100E10002A4305D0236808221A62E36E1343E3666F
:100E2000E26E002AC7D0800604D5880602D5204687
:100E300000F0ECFAE06E000703D4206880684006FA
:100E40001CD5204600F0C6FA20688168490611D5F5
:100E50008168402291438160606E00280AD01A495F
:100E60004163606EFFF78AF90028A4D0606E416B81
:100E70008847F8BD2046FFF78EFFF8BD2046FFF7F4
:100E80008AFF0020E066F8BDC5020DD552020BD5E1
:100E900001200005186220212046603041728172D5
:100EA0002046FFF777FFF8BD020605D50A0603D5F1
:100EB000204600F081FBF8BD4006FCD54806FAD577
:100EC000204600F096FAF8BDC113000870B5040082
:100ED00005D025466035687A002802D006E001205A
:100EE00070BD00202872204600F026F82420687289
:100EF00020680168490849000160204600F0C4FAF2
:100F00000128EDD0606A002802D0204600F0BEF92A
:100F1000206841680922D2029143416020688168BB
:100F20002A229143816020680168012211430160F7
:100F3000204600F011FA70BD00B50068124987B074
:100F400088421FD11148C269012149040A43C26184
:100F5000C069084005900C200090022001900020FC
:100F60000290032003900120049009206946C006E6
:100F7000FFF736F9002211461C20FFF705FB1C2065
:100F8000FFF7F8FA07B000BD00440040001002402F
:100F90007047FFB5064604466036707A83B00D464A
:100FA000202858D1002D0CD00598002809D0012008
:100FB000A1680003814207D12069002804D1E80715
:100FC00002D0012007B0F0BD307A012843D00120C3
:100FD00030720020E06621207072FFF7A9F90190BD
:100FE00027464037059838820598788218E0788A35
:100FF000401E788206980090002280212046019BA6
:1010000000F00DFB002818D10120A16800038142E7
:1010100002D12069002812D02168287808856D1C2B
:10102000788A0028E3D106980090002240212046CB
:10103000019B00F0F4FA002808D00320C2E72888BA
:101040002168C005C00D0885AD1CE9E7202070723D
:1010500000203072B6E70220B4E77047FEE70000D8
:1010600030B51A4887B04269012189040A434261B8
:1010700042690A400592426909010A434261426994
:101080000A400592426949110A43426140690925B3
:101090000840ED060590002203212846FFF742F99B
:1010A000FF20013000240090019469460294084812
:1010B000FFF796F803200090012001900294694602
:1010C00003942846FFF78CF807B030BD00100240AB
:1010D0000004004810B512481049016011494160F0
:1010E000002181600161416181610122C161C260B1
:1010F0000162FFF76DF9002800D0FEE700210848E3
:10110000FFF71CF9002800D0FEE700210448FFF794
:101110003AF9002800D0FEE710BD0000005400405E
:101120000C0000200E09002010B50C480A4901608F
:10113000E1214902416000218160C160016181615A
:10114000C1610C22016242614162FFF7BFFE0028CB
:1011500000D0FEE710BD0000004400405800002011
:10116000704700008307FF22DB0E9A408907090EB3
:10117000994000280BDA0007000F08388308084858
:101180009B001818C36993430B43C36170478308DE
:1011900004489B001B181868904308431860704768
:1011A00000ED00E000E400E07047704710B5FFF785
:1011B0008DF9FFF7EBFD10BD10B598B0222000901F
:1011C00001200390089000241020099404906846A0
:1011D000FFF7CAFB002800D0FEE707200D90032090
:1011E0000E900F94012110940DA8FFF7B9FA002872
:1011F00000D0FEE70D4816941190149411A8FFF743
:1012000029FA002800D0FEE7FFF754FB7D21C90032
:10121000FEF78CFFFFF7A2FD0420FFF791FD0022EF
:101220001146501EFFF7B0F918B010BD20000200A3
:10123000134801680122114301604168114A1140BD
:1012400041600168104A1140016001680122920466
:101250009143016041683F22120491434160C16A99
:1012600009090901C162016BFF22D4329143016374
:10127000416B4908490041630021816070470000CB
:10128000001002400CB8FF08FFFFF6FE10B5818C7D
:10129000C90707D001684A6801235B049A43836A3F
:1012A0001A434A60818C890707D501684A6801237F
:1012B0001B049A43C36A1A434A60818C490707D5C5
:1012C00001684A6801239B049A43036B1A434A60EE
:1012D000818C090707D501684A680123DB039A431B
:1012E000436B1A434A60818CC90607D5026891682E
:1012F00001231B039943836B19439160818C8906F9
:1013000007D501688A6801235B039A43C36B1A43BC
:101310008A60818C490612D503685A680121090543
:10132000046C8A4322435A60026C8A4207D10268E5
:10133000516803235B059943436C19435160818CC9
:10134000090607D501684A680123DB04806C9A43CB
:1013500002434A6010BD0000F8B500260446C66688
:10136000FEF7E6FF05461449206888421DD1006853
:10137000124F000709D501212B46002249052046BE
:10138000009700F04CF900280DD120680068400754
:101390000BD501212B46002289052046009700F03D
:1013A0003EF9002801D00320F8BD2020603460728F
:1013B000A07226720020F8BD00380140FFFFFF0137
:1013C00010B5406A0022014640314A834A82FFF745
:1013D000E2FC10BD01680A68FF2321339A430A60CA
:1013E00001688A68520852008A6020216030817248
:1013F000704710B501680A6840239A430A602022AA
:1014000069210A54FFF729FE002010BD70B502467D
:10141000403203466033948B9D7A0168222D05D0BB
:101420008869082210438861022070BD898C0126DA
:1014300085683603B54202D10569002D0BD02140E5
:10144000446D651C45652170518B491E0904090CCA
:10145000518307D015E0456D21402980416D891CDD
:101460004165F1E701680A68FF242134A2430A605C
:1014700001688A68520852008A6020219972FFF739
:1014800087FD002070BD0000F8B504462369A268FE
:10149000E5691A43636910202B43002125681A432C
:1014A0002B680E463E4F3B4013432B6023685A681F
:1014B00003252D03AA43E5682A435A60236AA269DB
:1014C00025681A43AB680B273F02BB431343AB604D
:1014D000344A2568954210D1334A126B9207920F15
:1014E0000ED0012A05D0022A05D0032A09D10220F4
:1014F00007E0042005E0082003E02C4A954200D1D3
:1015000000200122E369D203934224D100280CD0A9
:1015100002280DD0042813D0082817D001260A0964
:1015200012010807400F10432FE0FFF7C9F909E047
:1015300061681F4A48088018FEF7F8FD81B2EEE79F
:10154000FFF7CEF9616840004A08F4E761680122BC
:1015500048081204EFE7002808D0022809D0042820
:101560000BD0082814D001263046F8BDFFF7A8F9A3
:1015700005E061680F4A48080CE0FFF7B1F96168BF
:101580004A088018FEF7D2FD80B22168C860EBE7F8
:10159000616848088018FEF7C9FD80B2E860E3E79B
:1015A000F369FFEF003801400010024000440040A2
:1015B0000024F40000127A006921095C212901D07D
:1015C0000220704702464032518A002912D001237E
:1015D00081681B03994202D10169002915D0C16CB1
:1015E0004B1CC364006809780185508A401E5082F4
:1015F0000020704701680A6880239A430A600068E7
:101600000168402211430160F2E7C16C0368098858
:10161000C905C90D1985C16C891CC164E5E7FFB511
:1016200081B017460E4604460A9D1DE0681C1BD07B
:10163000002D05D0FEF77CFE0499401AA84213D96C
:1016400020680168FF22A13291430160206881680F
:10165000490849008160202060346072A072002037
:101660002072032005B0F0BD2068C1693046884370
:1016700004D00020B842D9D00020F3E70120F9E7D8
:1016800010B50248FFF788FB10BD0000580000208D
:1016900010B5024A024900F014F810BDE116000826
:1016A0000800002002E008C8121F08C1002AFAD171
:1016B00070477047002001E001C1121F002AFBD1D2
:1016C0007047F8B516460F460446002503E0394634
:1016D000B047641C6D1C20780028F8D12846F8BD5E
:1016E00013B56423012269460248FFF752FC0098B3
:1016F0001CBD000058000020FEF7F0FEFFF75CFD67
:10170000FFF7AEFCFFF710FDFFF7E4FC12481149AC
:10171000016002220821826041600021C160816174
:10172000C16102610162FEF733FF002800D0FEE7CD
:10173000FF24F5342046FEF745FD08A0FFF7A8FF7B
:101740000925ED0601212846FEF7E8FD2046FEF7B3
:1017500039FDF7E7005C0040C8000020626F626856
:1017600061636B0A00000000000000000000000040
:101770000102030406070809000000000102030437
:10178000A0170008000000200C000000A4160008AC
:10179000AC1700080C000020DC060000B41600089E
:0C17A0000000000000127A0000000000B1
:04000005080000C12E
:00000001FF
