:020000040800F2
:1000000070120020D50000084D240008FD200008D3
:1000100000000000000000000000000000000000E0
:100020000000000000000000000000001F28000881
:1000300000000000000000001D2800082128000822
:100040000501000805010008050100080501000878
:100050000501000805010008050100080501000868
:100060000501000805010008050100080501000858
:100070000501000805010008050100080501000848
:100080000501000800000000000000000501000854
:100090000000000005010008012900080501000812
:1000A0000000000005010008050100080501000826
:1000B000892D000800000000050100080D3A000825
:1000C0000348854600F072F800480047113D0008DB
:1000D000701200200C4880F308880C480168090E53
:1000E0000B4A914205D10B480B4901600B480C4962
:1000F00001600C4880470C480047FEE7FEE7FEE73A
:10010000FEE7FEE7FEE7000070120020040000009A
:100110001F00000018100240010000000000014014
:1001200000000000A5280008C100000830B50B46FB
:10013000014600202022012409E00D46D5409D42C1
:1001400005D31D469540491B254695404019154647
:10015000521E002DF1DC30BDD2B201E00270401C15
:10016000491EFBD270470022F6E710B513460A4637
:1001700004461946FFF7F0FF204610BD10B50022D7
:1001800000E0521C835C8C5CA34201D1002BF8D1AF
:10019000D8B2E1B2401A10BD03460A780270401C82
:1001A000491C002AF9D1184670470000064C012569
:1001B000064E05E0E36807CC2B430C3C984710340F
:1001C000B442F7D3FFF780FFD43F0008F43F0008A4
:1001D00070B58C180578401C6B075B0F01D1037854
:1001E000401C2A1106D10278401C03E006780E70EC
:1001F000401C491C5B1EF9D12B0705D40023521E5D
:100200000DD40B70491CFAE70378401CCB1A921CE2
:1002100003E01D780D70491C5B1C521EF9D5A142EC
:10022000D8D3002070BD000010B5042811DD0B4CA0
:10023000202806D021280CD022280AD0232808D133
:1002400009E000F031F97D21C900884201D901207F
:100250002060002010BD0020FAE70000040000200C
:100260000020704710B500220549064802F07DFEC7
:1002700003490448803902F06EFE002010BD0000E2
:10028000EC0B00200803002010B50A680446014664
:10029000054803F018FD2146044802F05CFE0348BF
:1002A00002F033FE002010BD7C0100200803002076
:1002B0000A4610B50C49097F032901D0022010BD60
:1002C000094920318969FF31FF310231496900292B
:1002D00001D0012010BD0146044802F046FE03484B
:1002E00002F088FE10BD0000E80400200803002092
:1002F00070B50024014620314A78022A03D0042137
:100300008163012416E0026813680E25AB43136075
:10031000026813685B085B0013600122056C1346DA
:10032000AB40C56B6B604A7000220A70416B0029BC
:1003300000D08847204670BD31B500F0B5F8009C6C
:100340000546601C00D0641C00F0AEF8401BA042C3
:10035000FAD338BDF8B5002389E001249C402A4631
:10036000A44622407ED04C68022C01D0122C0CD125
:10037000DC08A40027183C6A5D07ED0E0F26AE408E
:10038000B4430E69AE4026433E6205685E00032416
:10039000B4400F79A543BF07BF0FB7402F43076095
:1003A0004D68012D05D0022D03D0112D01D0122D45
:1003B0000ED18568CF68A543B7402F438760476853
:1003C0006546AF430D79ED06ED0F9D403D43456019
:1003D000C568A5438C68B4402C43C4604C68E400F5
:1003E00044D5264CA56901263543A561A4699D081D
:1003F00034400094224CAD002F19BC689D072E0F8D
:100400000F25B540AC430925ED06A84201D10025D2
:100410000AE01C4DA84201D1012505E01A4DA84271
:1004200001D1022500E00525B5402543BD60174CEC
:1004300025684E689543F60300D515432560656829
:100440004E689543B60300D515436560A5684E68B0
:100450009543F60200D51543A560E5684E689543BF
:10046000B60200E002E000D51543E5605B1C0A68B7
:100470001546DA4000D070E7F8BD000000100240D9
:10048000000001400004004800080048000401404A
:100490000069084000D001207047002A01D0816126
:1004A0007047816270470000014800687047000093
:1004B0005000002070B5024640325378202B1CD1EA
:1004C0001378012B19D0012313702424547004686D
:1004D00025689D432560046825681E03B543256093
:1004E000046825680D4325600068016819430160B0
:1004F000202050700020107070BD022070BD70B5BB
:10050000024640325378202B1BD11378012B18D090
:10051000012414702423537003681D68A5431D60D3
:1005200005682B680F263602B34309021943296078
:100530000068016821430160202050700020107085
:1005400070BD022070BD000070B5040006D02546C5
:10055000403568780026002802D005E0012070BDF3
:100560002E70204600F0F0F92420687020680168A1
:100570004908490001600F21606809068843216825
:10058000086121688A680120C00382438A60E168AB
:100590000129A16808D021229202114322689160AA
:1005A000E168022902D005E00143F7E70121226852
:1005B000C902516021684A680F4B1A434A6021689A
:1005C000CA688243CA60616920690843A169090257
:1005D00008432168C860216AE0690843216808600F
:1005E0002068016801221143016066642020687060
:1005F0002663AE70002070BD00800002FFB5044687
:10060000002083B02546403501906A78202A7FD1AA
:1006100022689269D24312047AD52A78012A77D0C7
:1006200001222A7024226A7060648F05BF0DE06881
:1006300001280BD00520C002012138188902884307
:1006400021684860FFF730FF064612E03148F3E7C3
:100650000698401C0DD00698002805D0FFF724FF0F
:10066000811B0698814204D92020687000202870E0
:1006700043E020688169C943890606D58069C04383
:10068000C00602D56878A028E2D120688069069B60
:10069000C043C00600960ED500222021204601F05E
:1006A0008BFD002829D121682020C86168700020B6
:1006B000287007B0F0BD00222021204601F07CFD0B
:1006C00000281AD120681021C16120682021C16151
:1006D0000198411C01910599884214D12068416814
:1006E00001229203114341600096002220212046FE
:1006F000069B01F061FD002802D00320D9E707E046
:1007000021682020C8610199059881428FD3ABE709
:100710000220CEE700200002FFB505460446403522
:10072000687881B020287ED1287801287BD00120EC
:100730002870FFF7B9FE0746012200901923D10364
:10074000204601F039FD00283FD12220687010209A
:10075000A8700026666403986062049860856663EA
:10076000618D09208002FF2903D9FF222285009094
:1007700034E0618D2185009036E02046029901F039
:1007800009FD36E001F03CFD002803D0606C042830
:1007900047D01AE02068416A606A421C62620170B8
:1007A000208D401E80B22085618D491E6185002804
:1007B0001FD1608D00281CD0009700228021204688
:1007C0000A9B01F0F9FC002802D0032005B0F0BD1F
:1007D000608DFF2805D9FF222285009601231B0684
:1007E000CBE7608D20850096208D0123C2B25B0689
:1007F000C3E7608D0A9900283A462046C2D101F02D
:100800003BFD0028C2D121682020C86121684A68C8
:10081000064B1A404A606870AE702E700020D5E713
:1008200001E00120D2E70220D0E7000000E800FE4E
:10083000FFB5054604464035687881B020287ED152
:10084000287801287BD001202870FFF72DFE07466D
:10085000012200901923D103204601F0ADFC0028AD
:100860003FD1212068701020A8700026666403988C
:100870006062049860856663618D01204003FF29F2
:1008800003D9FF222285009034E0618D21850090FC
:1008900036E02046029901F07DFC36E001F013FDC0
:1008A000002803D0606C042847D01AE0606A411C1D
:1008B0006162017820688162608D401E6085208DB4
:1008C000401E0004000C20851FD1608D00281CD024
:1008D00000970022802120460A9B01F06DFC002831
:1008E00002D0032005B0F0BD608DFF2805D9FF229E
:1008F0002285009601231B06CBE7608D208500969C
:10090000208D0123C2B25B06C3E7608D0A990028DF
:100910003A462046C2D101F0AFFC0028C2D121687E
:100920002020C86121684A68064B1A404A606870F6
:10093000AE702E700020D5E701E00120D2E7022042
:10094000D0E7000000E800FE00B500680D4987B060
:10095000884214D1122101910320012100900291BB
:100960000491039069460848FFF7F4FC0748C26900
:10097000012149050A43C261C0690840059007B0DA
:1009800000BD000000540040001400480010024068
:1009900002480168491C01607047000050000020B7
:1009A00010B506480168102211430160002000F0D4
:1009B00007F800F017F8002010BD000000200240EA
:1009C00010B5044600F0B2FE7D21C900FFF7AEFB72
:1009D00001F000F900222146501E00F037F80020F7
:1009E00010BD000008B512488169012211438161E0
:1009F000816911400091C26901040A43C261C06962
:100A00000022084000901146501F00F01FF80022FD
:100A10001146901E00F01AF800221146501E00F0F8
:100A200015F80448016810221143016008BD000058
:100A30000010024000000140C106C90E012088409C
:100A4000014908607047000000E100E010B501F0C6
:100A5000FFFC10BD10B50C0606D54906490E1C2436
:100A600061430818283004E01C2461430818FF3053
:100A7000093099B2002A06D001228272C180190C75
:100A80000181002010BD002282728180F9E71C22C2
:100A90004A43121810B5FF30FF300230926BC06924
:100AA00002F055FC10BD1C224A43121810B5FF304D
:100AB000FF32FF30013202309269C06902F0A2FCBD
:100AC00010BD0000F0B54A06520E13461C256A43BD
:100AD000CC091218002C01D0283201E0FF32093273
:100AE00004461370C909FF345170E134217A012999
:100AF0003DD001212172957A494B002D4949557805
:100B000037D0002D05681678AC465BD0B600AD5BDB
:100B10006F0404D5444F0D403D436746BD530568FF
:100B20001678AC46B600AD5B6F0605D53C4F0D4060
:100B300040373D436746BD5315780668AF00F55B07
:100B40000D4039490D43F553364F117830373D404C
:100B5000066889001D4375521178334A0068890080
:100B6000F13A15401D43455200202072F0BD02208D
:100B7000F0BD002D05681678AC4610D0B600AD5B10
:100B80006F0605D50D40264940310D4361468D5312
:100B900005681078234A8100685A30320EE0B600AA
:100BA000AD5B6F0404D50D401F490D4361468D5365
:100BB000056810781C4A8100685AF13A10401843C1
:100BC0006852D1E7B600AD5B6F0404D5164F0D40F7
:100BD0003D436746BD5305681678AC46B600AD5B2D
:100BE0006F0605D50E4F0D4040373D436746BD5358
:100BF00015780768AE00BD5B0D40094940310D43D3
:100C0000BD53094F1678F13F3D400168B6001D43C2
:100C10008D531178034A890000683032A1E7000043
:100C2000808000008F8F000080C00000F0B54B0670
:100C3000CA095B0E002A04D01C225A43121828321B
:100C400004E01C224A431218FF3209320024947037
:100C500013700346C909FF335170E133197A012932
:100C60001AD00121197251781A4C0029117806689E
:100C700014D08D00715B4F0603D52140164C2143E3
:100C80007153117800688A00124C815A3034214027
:100C900010246140202414E00220F0BD8D00715B1F
:100CA0004F0403D521400D4C214371531178006846
:100CB0008A000A4C815AF13C2140012424036140FE
:100CC00064006140044C403C214381520020187272
:100CD000F0BD00008F8F0000C080000080C00000C9
:100CE0004906490E1C2251430818FF300130008C80
:100CF00080B27047F0B54D066D0E2E461C2465433C
:100D0000CF092C18002F01D0283401E0FF3409341A
:100D10002670C90961700146FF31E260E131E3707C
:100D20008C46097A01290DD0012261460A72E278C7
:100D30009349002A08D0012A20D0022A0DD0032A84
:100D400025D111E00220F0BD237802689B00D55A1E
:100D50000D40FF35FF35023504E0237802689B0023
:100D6000D55A0D40D55212E02278036892009D5A60
:100D70000D40032149026918995208E0237802685E
:100D80009B00D55A0D40012189026918D15226785D
:100D90000768B5007B5B7B497B4A0B4013433343B9
:100DA0007B53A57A002D53D02578784E0B400768E9
:100DB000AD0033437B53E38850265D0803686D0024
:100DC000F65AF6182378DF0001239B02FB18F55230
:100DD000238950265D0803686D00F65AF6182378BB
:100DE000DF005311FB18F55263780768002B237856
:100DF00075D09D007B5B5E0403D5654E0B4033438D
:100E00007B53237807689D007B5B5E0604D55E4EAE
:100E10000B40403633437B53237805689E00AB5B21
:100E20000B405B490B43AB53564E21783036334071
:100E30000568890013436B522178554C006889007E
:100E4000F13C234013434352002061460872F0BD39
:100E50006378002BA3881FD05D0803685026F65ADC
:100E60006D00F6182378DF0001239B02FB18F55272
:100E7000237807689D007B5B5E0604D50B404249E2
:100E800040310B437B53016820783E4C8300C85AA5
:100E900030342040202440E05D0803685026F65A94
:100EA0006D00F6182378DF003A4BFB18F552036803
:100EB0005025ED5A374EEB182578B61CED00AD19CC
:100EC0005E19E3683E2B0BD9DD022D0CDB0601D148
:100ED0006D1EADB2AB020125ED032B4307E020E010
:100EE000DD032D0CDB0701D06D1CADB2AB023380EE
:100EF000237807689D007B5B5E0403D50B40244983
:100F00000B437B5301682078214C8300C85AF13C85
:100F10002040012424036040640060401043C85214
:100F200092E79D007B5B5E0403D5194E0B40334373
:100F30007B53237807689D007B5B5E0604D5124EC9
:100F40000B40403633437B53237805689E00AB5BF0
:100F50000B400D4940310B43AB530D4E2178F13E10
:100F600033400126360373407600734005688900DC
:100F700013436B522178034C89000068303460E7DA
:100F80008F8900008F8F000080800000808100002A
:100F900080C0000004040000F0B54D066D0E1C2456
:100FA0006C432418FF340934636122610022A2617A
:100FB00062702570E5681E46AB4201D92B46F21AD5
:100FC0006261A67A49060122890DD203002E2F4DB7
:100FD00006680CD05027BF5BBE192F1FC9197618A1
:100FE0003E2B15D9D902090CDF060CD00DE0502795
:100FF000BF5B4919BE19751820E08902114300E052
:101000008902298032E0491E89B28902114306E033
:10101000D903090CDF0701D0491C89B2890231804C
:101020006178002902D0012918D01FE001685026FC
:10103000765A71182678F60075194D193E2B06D987
:10104000D902090CDB06D8D1491E89B2D5E7D903EC
:10105000090CDA07D4D0491C89B2D1E701685022C3
:10106000525A51182278D20052198B5201682078B6
:10107000074B8200885A184001231B0358405B002D
:101080005840044B184388520020F0BD060400006D
:101090008FBF000080800000F0B50246FF32E132D1
:1010A000137A012B0BD001244F06CB097F0E14724B
:1010B000002B06D01C237B431B18283306E002209C
:1010C000F0BD1C234B431B18FF3309339C701F706A
:1010D000CE095E70012424031025114B002F0BD084
:1010E0004906C90D002E10D004680E4E605A3040DB
:1010F00068401843605210E001680B4E0888304089
:10110000604068401843088007E00568064E685A4A
:10111000303E304060401843685200201072F0BDED
:1011200080800000BF8F0000BFBF0000F0B5064602
:101130001D464806400E1C2343439C19E563A263E9
:10114000002222640123283463702070E0682B465B
:10115000854203D90546181A606100E06261A07AF1
:101160002A4F002810D0227830689200825C49060D
:101170005206890D002A16DA5022125A10183A1D0A
:1011800089184552228914E0ABB2A28821693068DF
:1011900001F031FB30685021095A08182178C90044
:1011A000C919455220E05022125A1018C919455247
:1011B000E288ABB22169306801F01DFB6178144808
:1011C000002902D0012907D00EE0217832688B0077
:1011D000D15A01400F4805E0217832688B00D15A7E
:1011E00001400D480143D152207831688200084BFC
:1011F000885A303318401023584020235840054B5C
:10120000403B184388520020F0BD0000020400005B
:101210008F8F0000C080000080C0000070B50446C1
:10122000006840308088C00B02D0204601F032F9BF
:1012300020684030818849050AD58188334A1140A9
:101240008180204600F0DAF80021204600F000F905
:10125000206840308188490403D581882C4A114098
:101260008180206840308188890403D58188294A9B
:10127000114081802068403081880425C9040029FC
:1012800010DA0188A9430180BD20216800024031A5
:101290000880204600F0BEF82068403081881E4A51
:1012A00011408180206840308188090517D58188E8
:1012B0001A4A114081802068403001880822114379
:1012C0000180206840300188294301802068403037
:1012D0008088C043C00402D5204600F0E3F82068AF
:1012E00040308188890506D581880D4A114081806A
:1012F000204600F0A5F8206840308188C90503D554
:101300008188084A1140818070BD0000FFFB000009
:10131000FFBF0000FFDF0000FFEF0000FFF700004D
:10132000FFFD0000FFFE0000F8B50027044600287E
:1013300007D02646FF36E136707A0025002802D015
:1013400005E00120F8BD3572204600F03BF803208F
:10135000707201210BE01C207843021910462030E6
:1013600041720772C572556395637F1CD5636068CF
:10137000B842F0D800200BE01C2242431219FF3281
:10138000013255721072D57255619561401CD5615C
:1013900062688242F0D82068403001802068403086
:1013A0000580206840308580206840300582BF205D
:1013B00022680002403210802034257171720020B2
:1013C000F8BD000008B500680A49884210D10A48F3
:1013D000C2690121C9050A43C261C06900220840EF
:1013E000009011461F20FFF731FB1F20FFF724FB61
:1013F00008BD0000005C00400010024010B5C41D94
:10140000FF34FA340121E06902F001F9E06902F0E9
:10141000C6F810BD10B504468069002806D00748FC
:10142000016906229143016101F000FAFF34FF34A3
:101430000234E06902F0D6F810BD000000ED00E0D3
:10144000FF3010B5FF300230C06902F0D1F810BD96
:101450000246FF32E132137A012B08D001231372C6
:10146000002906D020300171002010727047022040
:1014700070470068802140308181F5E710B58721F1
:1014800089000A580146FF31ED31104602F0D5F8C7
:1014900010BD00684030018B0122D203114301834B
:1014A0000020704710B50446FF30FF300230C0699D
:1014B00002F018F9A069002804D003480169062247
:1014C0001143016110BD000000ED00E0F8B50446D5
:1014D00000683E4DC00352D5E8690026C00007D41D
:1014E000E96928040143E961E969014001260091A5
:1014F00037480168C90510D401688215114301609D
:10150000FEF7D2FF074604E0FEF7CEFFC01B6428BB
:1015100024D82F480068C005F6D5286A03273F0263
:10152000384020D06168394081421CD0286A2A6A3C
:10153000B843012109040A432A622A6A8A432A62BB
:101540002862C0070FD0FEF7AFFF009008E0FEF75B
:10155000ABFF0099411A1F48814201D90320F8BD11
:10156000286A8007F3D5286A6168B843084328626F
:10157000002E04D0E969012000078143E961207849
:10158000C00705D0286BA168800880000843286345
:101590002078800605D5286B10218843E168084330
:1015A00028632068800305D5286B80218843616902
:1015B000084328632088400505D5286B40218843CF
:1015C0002169084328630020F8BD00000010024094
:1015D0000070004088130000F8B505464E480E46DE
:1015E0000068C007C00FB0420AD24B4801684908E2
:1015F0004900314301600068C007C00FB04270D19C
:101600002878464C800705D56068F0218843A96892
:10161000084360602878C00753D06868012817D055
:10162000022818D0032819D021688907002958DA20
:1016300061688908890001436160FEF735FF6968C8
:101640000746012913D002291DD0032927D034E0F1
:1016500021688903EAE721688901E7E7616BC9032B
:10166000E4E7FEF721FFC11B2D48814223D86068C3
:101670000007800F0128F4D123E0FEF715FFC11BFE
:101680002748814217D860680007800F0228F4D1EC
:1016900017E0FEF709FFC11B214881420BD86068A3
:1016A0000007800F0328F4D10BE0FEF7FDFEC11BFD
:1016B0001B48814201D90320F8BD60680007800FF4
:1016C000F3D115480168C907C90FB1420BD90168A8
:1016D00049084900314301600068C007C00FB042AB
:1016E00001D00120F8BD2878400706D560680721A1
:1016F00009028843E9680843606000F02DF86168DA
:10170000084A0906090F515CC840074908600020D3
:10171000FFF756F90020F8BD0020024000100240FB
:1017200088130000BC3F00085400002001480068F6
:1017300070470000540000200448054900684968CB
:10174000044A4905490F515CC840704754000020C5
:1017500000100240CC3F000830B516A30FCB89B073
:101760006C460FC417A30FCB0FC41A494A680C204C
:10177000144604401848042C05D0184B082C04D0FB
:101780000C2C00D1184609B030BD9402240F6D46D0
:101790002C5DC96A04AD0907090FD203695C920F79
:1017A000022A02D0032A00D11846FEF7BFFC60438C
:1017B000E9E7000002030405060708090A0B0C0DFF
:1017C0000E0F10100102030405060708090A0B0C8E
:1017D0000D0E0F100010024000127A00006CDC02A7
:1017E000FEB504460078F04EF04DC00748D068685A
:1017F0000007800F01281FD068680007800F0228AB
:1018000004D16868C003800F022815D061680129DF
:1018100019D001208004002901D0052917D029689A
:10182000B1432960296881432960606800281BD082
:10183000FEF73AFE074613E02868800320D560686B
:10184000002876D01CE0286830432860EDE729683E
:1018500001432960F7E7FEF727FEC01B642869D81B
:1018600028688003F7D50BE0FEF71EFE074604E06C
:10187000FEF71AFEC01B6428F1D828688003F7D44D
:10188000207880073ED568680007800F14D068680C
:101890000007800F022804D16868C003800F012868
:1018A0000AD0E068002828681DD00121084328607C
:1018B000FEF7FAFD07460BE0286880070BD5E068C5
:1018C000012836D107E0FEF7EFFDC01B0228C6D87D
:1018D00028688007F7D52868F82188432169C9005E
:1018E000084328600EE0400840002860FEF7DCFD59
:1018F000074604E0FEF7D8FDC01B0228AFD82868D1
:101900008007F7D42078000724D5E0690028686AAA
:1019100011D0012108436862FEF7C6FD074604E0C6
:10192000FEF7C2FDC01B022899D8686A8007F7D568
:1019300010E036E1D1E0400840006862FEF7B4FDF7
:10194000074604E0FEF7B0FDC01B022887D8686A8E
:101950008007F7D4207804274007002861DA0020A8
:101960000190E869C00008D4E969B8060143E9615B
:10197000E96901400120009101908D480168C90585
:1019800011D40168821511430160FEF78DFD0090AE
:1019900005E0FEF789FD0099401A642897D884482D
:1019A0000068C005F5D5A06801280AD0002801D03C
:1019B000052811D0286A400840002862286AB843E8
:1019C00002E0286A012108432862A068002812D09A
:1019D000FEF76AFD00900AE0286A38432862F0E7C3
:1019E000FEF762FD0099411A7248814275D8286A53
:1019F0008007F5D50DE0FEF757FD009006E0FEF7F5
:101A000053FD0099411A6B48814266D8286A8007C5
:101A1000F5D40198002804D0E9690120000781432A
:101A2000E9612078C00635D5606901280CD0401DD9
:101A3000686B24D038436863686B40084000686373
:101A4000FEF732FD074622E0686B38436863686B37
:101A5000012108436863FEF727FD074604E0FEF70F
:101A600023FDC01B022838D8686B8007F7D5686B48
:101A7000F8218843A169C900084368630AE0B843B4
:101A80006863F4E7FEF710FDC01B022825D8686BD9
:101A90008007F7D42078800637D568680007800F64
:101AA000032813D068680007800F022804D16868F3
:101AB000C003800F032809D0206A0028686B16D065
:101AC00030436863FEF7F0FC06460CE0686BC00329
:101AD0001BD5206A012864D117E05BE0FEF7E4FC27
:101AE000801B022856D8686BC003F7D50DE0B043C1
:101AF0006863FEF7D9FC064604E0FEF7D5FC801BC0
:101B0000022847D8686BC003F7D4606A002846D023
:101B100069680907890F022943D001263606022881
:101B2000286805D0B0432860FEF7BEFC044633E0C9
:101B3000B0432860FEF7B8FC074604E0FEF7B4FCAB
:101B4000C01B022826D828688001F7D4E86A216BD8
:101B5000000900010843E862A16AE06A0843696875
:101B60007B22D20391430843686028683043286091
:101B7000FEF79AFC044604E0FEF796FC001B0228E0
:101B800008D828688001F7D509E0FEF78DFC001B16
:101B9000022801D90320FEBD28688001F5D4002069
:101BA000FEBD0120FEBD000000000100001002404B
:101BB00000700040881300000422044904280869CA
:101BC00002D09043086170471043FBE700E000E05B
:101BD00070470000094910B5401E884201D9012014
:101BE00010BD074C60610321081F00F031FC00208C
:101BF000A06107202061002010BD0000FFFFFF0052
:101C000000E000E010B5FFF7E3FF10BD704770473C
:101C100070B5040005D025462035687F002802D025
:101C200006E0012070BD00202877204600F00AF869
:101C300002206877211D206800F06AFE0120687785
:101C4000002070BD08B500680A49884210D10A48D2
:101C50008269012189040A43826180690022084067
:101C6000009011461620FEF7F1FE1620FEF7E4FE66
:101C700008BD000000480140001002400268D3681F
:101C800001210B43D360006802680A430260002010
:101C90007047704770B50446006801690025C94364
:101CA0008907002915DBC168C943890711D4E91EDA
:101CB000016101202077206880698007204602D0DA
:101CC000FFF7E7FF04E000F096F8204600F094F8F4
:101CD000257720680169C943490717D4C168C943FA
:101CE000490713D40421C9430161022020772068E9
:101CF00080698005800F204602D0FFF7CAFF04E00C
:101D000000F079F8204600F077F82577206801691F
:101D1000C943090716D4C168C943090712D4082169
:101D2000C9430161042020772068C06980072046EC
:101D300002D0FFF7AEFF04E000F05DF8204600F0AF
:101D40005BF8257720680169C943C90617D4C168C3
:101D5000C943C90613D41021C94301610820207763
:101D60002068C0698005800F204602D0FFF791FFF0
:101D700004E000F040F8204600F03EF825772068A7
:101D80000169C943C90708D1C168C943C90704D15A
:101D9000891E0161204600F031F820680169C943BD
:101DA000090609D4C168C943090605D48021C9437D
:101DB00001612046FFF72AFF20680169C9434906EF
:101DC00009D4C168C943490605D44021C94301610A
:101DD000204600F02DF820680169C943890609D41E
:101DE000C168C943890605D42021C9430161204641
:101DF000FFF70DFF70BD70477047000010B5084831
:101E0000007800280BD132230122A1210548FEF7DA
:101E1000F5FB05490870097804A001F001FE10BD2A
:101E2000000000200C0200200100002025640A00B0
:101E30007047704770470000F8B503680446D869DA
:101E4000196805072D0F07D1820605D58A0603D527
:101E5000204600F05FFEF8BD9A68002D64D0D507DB
:101E6000ED0FFF2621360E402E435DD0C60706D06B
:101E7000CE0504D501261E62E36E3343E366870771
:101E800002230426002F06DAD70704D027683B6216
:101E9000E76E3743E766470706D5D20704D02268C6
:101EA0001662E26E1A43E266020709D520220A4052
:101EB0002A4305D0236808221A62E36E1343E366BF
:101EC000E26E002AC7D0800604D5880602D52046D7
:101ED00000F020FEE06E000703D420688068400612
:101EE0001CD5204600F0FAFD20688168490611D50E
:101EF0008168402291438160606E00280AD01A49AF
:101F00004163606EFEF7F4F90028A4D0606E416B67
:101F10008847F8BD2046FFF78DFFF8BD2046FFF744
:101F200089FF0020E066F8BDC5020DD552020BD531
:101F30000120000518622021204660304172817224
:101F40002046FFF776FFF8BD020605D50A0603D541
:101F5000204600F0B5FEF8BD4006FCD54806FAD58F
:101F6000204600F0CAFDF8BDC92A000870B504007B
:101F700005D025466035687A002802D006E00120A9
:101F800070BD00202872204600F026F824206872D8
:101F900020680168490849000160204600F0F8FD0A
:101FA0000128EDD0606A002802D0204600F0F2FC43
:101FB000206841680922D20291434160206881680B
:101FC0002A22914381602068016801221143016047
:101FD000204600F045FD70BD00B50068124987B08D
:101FE00088421FD11148C269012149040A43C261D4
:101FF000C069084005900C2000900220019000204C
:102000000290032003900120049009206946C00635
:10201000FEF7A0F9002211461C20FEF717FD1C2038
:10202000FEF70AFD07B000BD00440040001002406A
:102030007047FFB5064604466036707A83B00D4699
:10204000202858D1002D0CD00598002809D0012057
:10205000A1680003814207D12069002804D1E80764
:1020600002D0012007B0F0BD307A012843D0012012
:1020700030720020E06621207072FEF715FA0190A0
:1020800027464037059838820598788218E0788A84
:10209000401E788206980090002280212046019BF5
:1020A00000F041FE002818D10120A1680003814200
:1020B00002D12069002812D02168287808856D1C7B
:1020C000788A0028E3D1069800900022402120461B
:1020D000019B00F028FE002808D00320C2E72888D2
:1020E0002168C005C00D0885AD1CE9E7202070728D
:1020F00000203072B6E70220B4E77047FEE70168BF
:102100008A69D243920701D400228A6200688169F9
:10211000C943C90703D08169012211438161704716
:10212000F7B5044600680E468069C043C0062CD44B
:1021300020272546403520688069C04380060FD59A
:10214000701CF8D0002E05D0FEF7AEF90299401AA7
:10215000B042F0D96F700020A87028700320FEBD37
:1021600021681020C8612068C7612046FFF7C7FFBB
:1021700020684168064A11404160042060646F7025
:102180000020A87028700120FEBD0020FEBD0000C8
:1021900000E800FE70B50568049C68688905890D33
:1021A0001204044E11431943304021430143696036
:1021B00070BD0000009800FCF8B51C4617460E469E
:1021C000054611E0601C0FD0002C05D0FEF76CF91D
:1021D0000699401AA04207D9202040356870002097
:1021E000A87028700320F8BD2868816930468843AC
:1021F00004D00020B842E5D00020F8BD0120F9E766
:10220000F7B5002720260546044640352AE020463B
:10221000029A0199FFF784FF002801D00120FEBD3A
:1022200020688069C04380060BD42068C66120689E
:102230004168104A1140416067646E70AF702F7042
:10224000ECE70198002806D0FEF72EF90299411A12
:102250000198814206D9606C304360646E702F70C3
:102260000320FEBD20688069C0434007CFD4002012
:10227000FEBD000000E800FE70B516460D4604469F
:102280001AE0324629462046FFF74AFF002801D0CF
:10229000012070BD002D04D0FEF706F9801BA84276
:1022A0000AD9616C202001436164403460700020D1
:1022B000A0702070032070BD20688069C043800634
:1022C000DFD4002070BD70B516460D4604461CE0F4
:1022D000324629462046FFF723FF002801D001207F
:1022E00070BD681C11D0002D04D0FEF7DDF8801BF6
:1022F000A8420AD9616C20200143616440346070B7
:102300000020A0702070032070BD20688069C04349
:102310008007DDD4002070BD30B51A4887B042690F
:10232000012189040A43426142690A4005924269D7
:1023300009010A43426142690A4005924269491112
:102340000A434261406909250840ED0605900122D3
:1023500003212846FEF7A1F8FF2001300024009059
:102360000194694602940848FDF7F4FF03200090A9
:10237000012001900294694603942846FDF7EAFF84
:1023800007B030BD001002400004004810B51248EC
:102390001049016011494160002181600161416182
:1023A00081610122C161C2600162FEF7CDF800289F
:1023B00000D0FEE700210848FEF77CF8002800D096
:1023C000FEE700210448FEF79AF8002800D0FEE757
:1023D00010BD0000005400400C0200200E09002037
:1023E00010B50C480A490160E12149024160002111
:1023F0008160C16001618161C1610C220162426141
:102400004162FFF7B3FD002800D0FEE710BD0000D9
:10241000004400409802002010B5002207490848F7
:1024200000F056FF0749064801F08BF906490448B9
:1024300000F087FD024801F0D5F910BD0C00002026
:1024400008030020380100204000002070470000F1
:102450008307FF22DB0E9A408907090E9940002866
:102460000BDA0007000F0838830808489B0018188B
:10247000C36993430B43C3617047830804489B00BF
:102480001B181868904308431860704700ED00E07F
:1024900000E400E0F0B585B004460020694688807D
:1024A0002646203678E19A8917073F0F26D0B900D3
:1024B0000291425A9A80998809047DD5BE490A4002
:1024C0000299425238461C2148430519FF35093507
:1024D000A87A0028206870D029788A00825A52048D
:1024E0006CD55022125ACB00B44912185918515ABF
:1024F0008905890D00917DD0EA88BDE09A89D206D0
:1025000027D40188AE4A2546114001802068502119
:10251000095A283508182978CA00A8495118405A7C
:102520008005800D2064A16B0818A063002120465F
:10253000FEF7ADFA30790028B4D068690028B1D12F
:102540003079802108432168403188810020307132
:1025500022E12546FF35028809359A809B881B05B4
:1025600019D5098A09182878C2009448001D101846
:10257000085A294683059B0DAB61AA88E43120687F
:1025800000F024F920688C4A01881140018020461F
:10259000FEF774FF00E1694689880904D8D58649A9
:1025A000864F0A40028020685021095A3F1D0918B1
:1025B0002878C000C01902E085E03DE04FE0085AED
:1025C00083059B0DAB6108D0AA882969206800F0BB
:1025D000FDF8A96928694018286100212046FEF706
:1025E00062FA206801464030008A4018C119E86844
:1025F0003E2800E044E00AD9C202120CC00601D114
:10260000521E92B290020122D203104306E0C2038E
:10261000120CC00701D0521C92B2900208802168AF
:10262000684A08881040012212035040520050406E
:10263000654A10430880AFE05021095A0A182978EA
:10264000CB005E49091D5918515A8905890D009121
:1026500021D0AA882969009B00F0B8F81BE050221D
:10266000CB00125A55491218091D5918515A89059B
:10267000890D009104D02A892969009B00F0A6F8F1
:10268000297820688A004E4B815A803319404E4B7E
:10269000403319438152A96900980818A861296933
:1026A00000980A182A616B69002B03D0E96800982A
:1026B000814204D929782046FEF7F5F903E029780C
:1026C0002046FEF769FC68468088000664D51C2019
:1026D0004743206802993A4A415A3D191140029AEB
:1026E00028358152A87A0028206811D029788A00DC
:1026F000825C52061ED55022125AC90012182F4869
:102700000818105A83059B0DAB6124D0EA881EE09F
:102710005021095A09182878C20028481018085A68
:1027200083059B0DAB6121D0AA882969206800F040
:1027300062F81BE05022125AC90012181F48001DEF
:102740000818105A83059B0DAB6104D02A892969AA
:10275000206800F050F8287822688000184B115A41
:1027600080331940174BF13319431152206850211F
:10277000095A09182878C20010481018085A80050C
:10278000800DA86129690A182A616B692978002BD4
:1027900020460DD0FEF7CAFC2068014640318A88E9
:1027A0006B469A81120400D57DE6002005B0F0BD8D
:1027B000FEF76DF9F0E700008F0F00000204000043
:1027C0000F8F00008FBF000080800000101810B530
:1027D000012292025C088018002C07D002880A703F
:1027E000120A4A70801C891C641EF7D1DA0701D0D6
:1027F0000078087010BD101801225B1C920210B501
:102800005B088018002B08D04A780C78120222430B
:102810000280801C891C5B1EF6D110BD704770477A
:1028200010B5FEF7B5F8FFF7EDF910BD10B598B08B
:102830002220009001200390089000241020099489
:1028400004906846FEF7CCFF002800D0FEE7072082
:102850000D9003200E900F94012110940DA8FEF707
:10286000BBFE002800D0FEE70D481694119014948A
:1028700011A8FEF72BFE002800D0FEE7FEF756FF5A
:102880007D21C900FDF752FCFFF7A4F90420FFF7F2
:1028900093F900221146501EFEF7D8F818B010BD6B
:1028A00020000200134801680122114301604168C1
:1028B000114A114041600168104A114001600168ED
:1028C000012292049143016041683F221204914326
:1028D0004160C16A09090901C162016BFF22D4325A
:1028E00091430163416B49084900416300218160C4
:1028F00070470000001002400CB8FF08FFFFF6FE12
:1029000010B50248FFF7C6F910BD000058020020BC
:10291000F0B502681A4B0124A4071A4D984203D05F
:10292000A04201D0A84203D17026B2434E68324380
:10293000154E164F98420AD0A04208D0A84206D0A1
:10294000134CA04203D0B04201D0B84204D10324BA
:102950002402A243CC6822438024A2434C69224330
:1029600002608A68C2620A688262984203D0B042FA
:1029700001D0B84201D10969016301214161F0BD73
:10298000002C014000040040004401400048014088
:102990000020004010B5818CC90707D001684A6843
:1029A00001235B049A43836A1A434A60818C890736
:1029B00007D501684A6801231B049A43C36A1A4376
:1029C0004A60818C490707D501684A6801239B0446
:1029D0009A43036B1A434A60818C090707D5016843
:1029E0004A680123DB039A43436B1A434A60818C94
:1029F000C90607D50268916801231B039943836BBD
:102A000019439160818C890607D501688A68012382
:102A10005B039A43C36B1A438A60818C490612D5C3
:102A200003685A6801210905046C8A4322435A60ED
:102A3000026C8A4207D10268516803235B059943FF
:102A4000436C19435160818C090607D501684A68B7
:102A50000123DB04806C9A4302434A6010BD0000EE
:102A6000F8B500260446C666FDF71EFD0546144966
:102A7000206888421DD10068124F000709D5012146
:102A80002B46002249052046009700F04CF900280B
:102A90000DD12068006840070BD501212B4600228C
:102AA00089052046009700F03EF9002801D0032058
:102AB000F8BD202060346072A07226720020F8BD3C
:102AC00000380140FFFFFF0110B5406A00220146B7
:102AD00040314A834A82FFF7ADF910BD01680A68A8
:102AE000FF2321339A430A6001688A685208520022
:102AF0008A60202160308172704710B501680A68D1
:102B000040239A430A60202269210A54FFF7F5FA0C
:102B1000002010BD70B50246403203466033948BEE
:102B20009D7A0168222D05D08869082210438861AA
:102B3000022070BD898C012685683603B54202D11A
:102B40000569002D0BD02140446D651C4565217041
:102B5000518B491E0904090C518307D015E0456DBE
:102B600021402980416D891C4165F1E701680A68AF
:102B7000FF242134A2430A6001688A685208520087
:102B80008A6020219972FFF753FA002070BD00007F
:102B9000F8B504462369A268E5691A436369102001
:102BA0002B43002125681A432B680E463E4F3B40BD
:102BB00013432B6023685A6803252D03AA43E56855
:102BC0002A435A60236AA26925681A43AB680B2717
:102BD0003F02BB431343AB60344A2568954210D192
:102BE000334A126B9207920F0ED0012A05D0022AA7
:102BF00005D0032A09D1022007E0042005E00820BF
:102C000003E02C4A954200D100200122E369D2035F
:102C1000934224D100280CD002280DD0042813D0D0
:102C2000082817D001260A0912010807400F10438F
:102C30002FE0FEF781FD09E061681F4A480880180F
:102C4000FDF774FA81B2EEE7FEF786FD6168400099
:102C50004A08F4E76168012248081204EFE70028F7
:102C600008D0022809D004280BD0082814D0012647
:102C70003046F8BDFEF760FD05E061680F4A480880
:102C80000CE0FEF769FD61684A088018FDF74EFA0E
:102C900080B22168C860EBE7616848088018FDF7DA
:102CA00045FA80B2E860E3E7F369FFEF00380140DE
:102CB00000100240004400400024F40000127A009A
:102CC0006921095C212901D0022070470246403267
:102CD000518A002912D0012381681B03994202D135
:102CE0000169002915D0C16C4B1CC36400680978C8
:102CF0000185508A401E50820020704701680A6892
:102D000080239A430A6000680168402211430160F1
:102D1000F2E7C16C03680988C905C90D1985C16C42
:102D2000891CC164E5E7FFB581B017460E4604462D
:102D30000A9D1DE0681C1BD0002D05D0FDF7B4FBDB
:102D40000499401AA84213D920680168FF22A132D1
:102D50009143016020688168490849008160202012
:102D600060346072A07200202072032005B0F0BDB4
:102D70002068C1693046884304D00020B842D9D0C9
:102D80000020F3E70120F9E710B50248FFF754F8F7
:102D900010BD000098020020FF30FF300230806933
:102DA000002806D0FF300021FF3002304161084684
:102DB00070470220704770B5C21DFF32FA321546C7
:102DC000946900F059FBE11DFF31FA31C860A86930
:102DD000002808D04868E969CA6883218900611819
:102DE0009047002070BD022070BD70B504460025DC
:102DF000812100F099FA0121204600F095FA822104
:102E0000204600F091FAFF34FF340234A069002814
:102E100007D0E06940688047A06900F0F1FD00201C
:102E2000A061284670BDFF3010B5FF301A300AC8C7
:102E3000002B0AD0CC1DFF34FA342078FF2804D0B0
:102E40009B6862789847FF202070002010BD00002A
:102E50000A21018000487047600000204321018062
:102E600000487047B00000204321018000487047AF
:102E70006C0000204321018000487047F4000020CE
:102E8000F8B50446007C012600257602002830D0E3
:102E9000402302228121204600F058FB40230222D9
:102EA0000121204600F052FB082303228221204604
:102EB00000F04CFB8720800000F0A4FDE11DFF31F5
:102EC000FA31886100281CD00746C869006880472D
:102ED000FF370020FF3702377861B861207C7A68BD
:102EE000002810D040230121204600F045FB284651
:102EF000F8BD334602228121204600F027FB3346ED
:102F0000CDE70125F3E73346EDE710B54321C900CE
:102F10000958002913D0027C002A09D0FF31FF3163
:102F200002314A684023012100F026FB002010BD39
:102F3000FF31FF31023101235B024A68F3E70220CF
:102F400010BD02460220002904D0FF32FF320232B7
:102F50000020D1617047FF30FF3002308069FF30C0
:102F6000FF300230416000207047FF30FF300230F8
:102F70008069FF30FF3002300261816000207047BD
:102F800070B50C46C11D0546FF31FA31207860222C
:102F90008E69024022D0202A28D1E288002A16D049
:102FA000000607D5C96960788B6831469847E28882
:102FB000314618E0F01DFF306178FA300170A179D8
:102FC0004170E2883146284600F050F80EE0C969A9
:102FD00060788B6800222146984707E060780A28CD
:102FE00004D103490122284600F05CF8002070BD9E
:102FF0005C00002010B54321C9000958002911D0F8
:10300000FF31FF3102314A69002A01D0012010BD91
:1030100001224A610A8A93B28A68812100F06AFB20
:10302000002010BD022010BD10B58522920012585C
:1030300052689047002010BD134610B50A46002183
:1030400000F09AFA002010BD134610B50A46002180
:1030500000F050FB002010BD10B50446802100F0A8
:103060001BFB0021204600F017FB10BD10B5FF230D
:103070000324F5331C50C31DF9339A60DA601346FC
:103080000A46002100F078FA002010BD10B5FF219B
:103090000522F5310A5000231A46194600F06CFA51
:1030A000002010BD10B5FF230224F5331C508261AF
:1030B0001346C2610A46002100F01CFB002010BD2F
:1030C00010B5FF210422F5310A5000231A46194693
:1030D00000F010FB002010BD10B50A46024903A005
:1030E00000F0D4F8004810BD6C0900204344432090
:1030F000436F6E66696700001220088000487047C1
:103100002C00002010B50A46024903A000F0BEF8CA
:10311000004810BD6C09002043444320496E74658B
:1031200072666163650000000420088000487047F3
:103130002800002010B50A46024903A000F0A6F8B6
:10314000004810BD6C09002053544D6963726F65CF
:103150006C656374726F6E696373000010B50A4624
:10316000024903A000F092F8004810BD6C0900204D
:1031700053544D3332205669727475616C20436F1D
:103180006D506F727400000010B50A46024903A02A
:1031900000F07CF8004810BD6C0900203030303061
:1031A000303030303030314100000000F8B50D468D
:1031B00004464988FF300A0AFF300230130000F04D
:1031C0003FFC084905091649493E46490069237CE8
:1031D00002682AE0217C02264069002905D0C16AE4
:1031E000684688470146467040E0816AF8E7C9B200
:1031F0000B0000F025FC0604080F13171E2F0069B2
:10320000227C436802E00069227C8368694610469C
:10321000984712E00069227CC368F7E70069227CC6
:103220000369F3E70069237C4269694618469047C1
:1032300003E00069227C8369E8E7014616E0217C0F
:10324000002907D14069416B68468847F5E7217C32
:10325000002904D029462046FFF7FEFEF8BD40694C
:10326000016B68468847072201464270684600881D
:103270000028F3D0EA88002AF0D0824200D9024622
:10328000684602802046FFF70DFFF8BD70B50023A9
:1032900000281CD00446002502E06D1CEDB2641C21
:1032A0002678002EF9D16C00A41C1480CC54032283
:1032B0005B1CCA5400245B1C06E0CA545B1CDAB2D7
:1032C0008C54521CD3B2401C0278002AF5D170BD38
:1032D00010B5002813D0C31DFF33FA335C69002CEE
:1032E00001D000245C61002900D01961FF21012375
:1032F000FD310B54027000F0C7F8002010BD022011
:1033000010BD10B5FF30FF3002300024006AFDF719
:103310008DFC002806D0012801D0022801D002240B
:1033200000E00124204610BD10B5FF30FF30023010
:103330000024006AFDF7C6FB002806D0012801D052
:10334000022801D0022400E00124204610BDFEB571
:103350000446FF30E51DE130FF35FA351346019094
:10336000002908D068694269002A49D00198007F85
:10337000032843D044E02646FF3681362046716F4D
:103380001430022934D1C26881680092914207D971
:10339000891A81608AB219462046FFF755FE13E06C
:1033A000406811460746FCF7C1FE002913D100987A
:1033B000874210D3B06F87420DD2002211462046BB
:1033C000FFF742FE0020B06700231A461946204648
:1033D00000F0D2F80CE06869C168002905D00198B6
:1033E000007F032801D1204688472046FFF74EFE84
:1033F0002878012804D10020287001E02046904759
:103400000020FEBD70B50546FF35E1352B46203363
:1034100016460446002907D058698269002A29D037
:10342000287F032824D025E0FF21F531E01D09592C
:10343000FD3003291ED18268C1688A420BD9511A16
:103440008160C068814200D301468AB2314620467D
:10345000FFF7F2FD0EE058690169002904D0287FCA
:10346000032801D1204688472046FFF729FE01E0C6
:1034700020469047002070BDFF3010B5FF3002306D
:10348000006AFDF72DFC10BD10B51F49C41DC861B1
:10349000FF341E49FA341E482162086002220820C7
:1034A0008A6048600020C8608861C8610A6108625B
:1034B0000846FDF739FF002804D0FF21353115A05B
:1034C00000F0ACFA002218231146206AFDF7C2FA78
:1034D000582300228021206AFDF7BCFAC023002275
:1034E0008121206AFDF7B6FAFF2311330022012162
:1034F000206AFDF7AFFAFF23013300228221206A00
:10350000FDF7A8FA002010BD4C0900204C07002050
:10351000005C00402E2E2F5372632F757362645F20
:10352000636F6E662E630000FF30CA09FF304906E4
:103530000230490E1C23006A59430818002A01D0A2
:10354000203001E0FF300130807A704770B5FF30E5
:103550001D46FF30023013460024006A2A46FDF75C
:10356000C9FB002806D0012801D0022801D002247E
:1035700000E00124204670BD10B5FF30FF3002305E
:103580000024006AFDF708FD002806D0012801D0BC
:10359000022801D0022400E00124204610BD70B5AD
:1035A0000022044640231146FFF7D0FF4025FF20AC
:1035B000113005512B46002280212046FFF7C6FF1F
:1035C000FF200121FD3025620155E01DFF30FA305A
:1035D0008169002904D040692179426820469047DA
:1035E000002070BDFF30E130417F0177002070473F
:1035F00010B5FF21FD31095C032906D18521890021
:103600000958C969002900D08847002010BD0174FD
:103610000020704710B5FF30FF3002300024006AF0
:10362000FDF716FF002806D0012801D0022801D09E
:10363000022400E00124204610BD70B5044641205C
:10364000C0002018054600F068F82146FF3181319E
:103650000122084680304A67C2898A67007AC1061B
:10366000C90E0AD001290DD0022910D0C109C90103
:10367000204600F011F8002070BD2946204600F0D9
:10368000B6F8F8E72946204600F09DF9F3E7294609
:10369000204600F023F9EEE710B5FF30FF3002308E
:1036A0000024006AFDF7F8FC002806D0012801D0AC
:1036B000022801D0022400E00124204610BD10B5EC
:1036C000FF30FF3002300024006AFDF7E2FE0028E0
:1036D00006D0012801D0022801D0022400E00124F4
:1036E000204610BDFF30E130017F41770421017792
:1036F0000020704710B5FF30FF3002300024006A10
:10370000FDF714FD002806D0012801D0022801D0C1
:10371000022400E00124204610BD0A7802704A7895
:103720004270CB788A781B02D21842804B790A7992
:103730001B02D21882808A79C97909025118C18086
:10374000704702460020002904D0FF32FF320232C7
:10375000516170470220704710B5852292001258BF
:103760000224002A04D012689047002800D10024C7
:10377000204610BD70B50E468978194D0446297053
:10378000012904D931462046FFF766FC70BD20466A
:10379000FF30E130027F022A15D0032AF2D100293E
:1037A00017D0606888420AD0C1B22046FFF73CFCBF
:1037B000297861602046FFF7CFFF0228E2D020463B
:1037C000FFF77EFC70BD0029F9D00322616002770B
:1037D000F0E70222027720466160FFF725FCEEE762
:1037E0005800002010B5FFF76AFF002010BDF8B5A3
:1037F00000220092C61DFF364C781746FA36324634
:103800000125203A230000F01BF90A3C56415041A3
:103810000906412B2841FFF7C9FC5DE00446888872
:10382000002818D1C888002815D188781746460680
:10383000107F760E03280ED0BE7731462046FFF764
:10384000E9FE2046FFF73CFC002E02D0022038772C
:1038500042E03D7740E0204618E0FFF78BFF3BE079
:10386000CB88012B12D1127F022A02D0032A0DD15C
:1038700004E0012201460831876013E00122011DA6
:1038800010E0127F022A04D0032A02D0FFF7E4FBE3
:1038900022E0C5607168002901D00321C1600146A2
:1038A00002220C31FFF7FEFB16E00446488801288F
:1038B00012D1756009E00446107F022801D0032868
:1038C000C9D14888012807D177607069826820468D
:1038D00090472046FFF7F4FB0098F8BDF8B5044682
:1038E0000D462878E61D4006FF3600270979800F2F
:1038F000FA36012809D06A7830462038002A38D0B4
:10390000012A1ED0032A3DD106E07069294682684B
:10391000204690470020F8BD007F022817D00328DA
:103920002CD16888002806D1002904D0802902D033
:103930002046FFF7B1FE706929468268204690470D
:1039400013E0007F022802D0032817D104E00029E9
:1039500018D080291AD115E06888002812D14806AD
:1039600003D02046FFF7CDFCE5E72046FFF7A8FB94
:1039700008E0007F022807D003280BD02946204604
:10398000FFF76AFB3846F8BD4806FBD02046FFF734
:1039900083FEF7E7C80904D04806400D0519143521
:1039A00004E04806400D0519FF3505352046FFF7B0
:1039B000BBFD002800D001202860022229462046B5
:1039C000FFF770FBDEE770B50446FF30E130007FA3
:1039D0000D4603280FD1287901280CD885208000B6
:1039E0000059826820469047E888002806D1204682
:1039F000FFF766FB02E02046FFF72EFB002070BDBC
:103A000070470000004870472C05002010B50248A0
:103A1000FDF704FC10BD00004C070020FEE700008D
:103A20000FB410B503A9044B044A029800F024F81F
:103A300010BC08BC04B018477D3C00087001002091
:103A400030B47446641E2578641CAB4200D21D4617
:103A5000635D5B00E31830BC184702E008C8121F22
:103A600008C1002AFAD170477047002001E001C167
:103A7000121F002AFBD17047FFB58DB00F460546D7
:103A8000002606E025280AD0109A0F9990476D1C51
:103A9000761C28780028F5D1304611B0F0BD0024FE
:103AA0000121674A009400E004436D1C2B7808460E
:103AB000203B98401042F7D128782E2815D10420B9
:103AC000044368786D1C2A280AD101CF6D1C009030
:103AD0000BE000990A225143303940186D1C0090C8
:103AE0002878014630390929F3D92878692843D044
:103AF00006DC0028D0D063280BD0642804D13BE03A
:103B000073280FD075284CD0109A0F999047761CC7
:103B100094E03878694608720020487202A8019043
:103B2000012003E0386801900020C0433F1D610779
:103B30000CD5002400E0641C00998C420FDA84420A
:103B4000F9DB0199095D0029F5D108E0002400E0C6
:103B5000641C8442FCDB0199095D0029F8D1361907
:103B600007E0019801990078491C0191109A0F997A
:103B70009047641EF5D261E00A20019001CF002831
:103B800002DA40422D2102E0210504D52B216A46AC
:103B90001172012103E0E10701D02021F7E70C9128
:103BA00004E00A20019001CF00210C910BA90B9198
:103BB00008E00199FCF7BAFA0A460B993032491E1F
:103BC0000B910A700028F4D10B9803A9081A203031
:103BD0000190600701D5009801E001200090019953
:103BE000884203DD01460198081A00E00020002405
:103BF000009006E002A8109A005D0F999047641C9F
:103C0000761C0C988442F5DB04E0109A30200F9962
:103C10009047761C0099481E00900029F5DC08E0CA
:103C20000B980B990078491C0B91109A0F999047AB
:103C3000761C0199481E01900029F1DC6D1C28E7D3
:103C4000092801000EB56946087245200871FF2059
:103C5000F5300090012302AAA0210748FCF7E8FDF7
:103C60007D20C0000090012301AAA1210248FCF799
:103C700053FD694608790EBD0C02002013B500986B
:103C8000C0B200F0FFF86423012269460248FEF743
:103C9000D0F900981CBD00009802002010B5044621
:103CA000C06862688154A1686068884201DA401C7B
:103CB0006060E068002240182038C277FCF7F4FB0F
:103CC0002060002010BDF8B515460E4607460024BA
:103CD00004E0315D3846FFF7E1FF641CAC42F8D3E5
:103CE0000020F8BD10B504468160084600F086F853
:103CF000E06000202060204600F002F8002010BDA7
:103D000010B5002141608168C068FCF72CFA10BD35
:103D1000FCF746FEFEF78AFDFEF7FEFAFEF760FBB3
:103D2000FEF734FBFEF778FB2A482949016000249E
:103D300029498460416004614461FA218461C16061
:103D4000FDF766FF002800D0FEE7FF20F530FCF706
:103D5000F3FA22A0FFF764FE00F086F8224D012757
:103D60002F701C48FDF78AFF204E00F0A7F800F0E6
:103D7000DBF82878002824D0012209201146C0064B
:103D8000FCF78BFB092001220221C006FCF785FB12
:103D90003470FF2101311648FCF77AFB297800299D
:103DA000E3D10128E1D130780028DED111A0FFF75E
:103DB00037FE092000220221C006FCF76EFB377097
:103DC000D3E7092000220121C006FCF766FBE0E7EB
:103DD00000480140580200207FBB0000626F62680B
:103DE00061636B0A00000000010000200800002051
:103DF00000040048646F6E65210A0000F0B50B30C6
:103E0000C108C900144F0026144A0FE003688B4212
:103E10000BD38B4205D95C1A4318456830C3083B65
:103E200000E04368136002C004E0021D106800282F
:103E3000ECD13046002803D13868002801D000209A
:103E4000F0BD064A06481060064A121AD208D2008F
:103E500044C001203860D7E77801002074010020B9
:103E6000740C0020700E002010B50449002008607A
:103E700080210348FFF736FF10BD0000040000203A
:103E80007C010020F1B5FCF70FFB054600260A4C2B
:103E90000DE001216846FCF70BFA00280AD0022841
:103EA00008D0FCF701FB401B642800D9266020687D
:103EB0000028EED1F8BD00000400002070B5194CB8
:103EC00000256068002810DDE16808182038C07FF0
:103ED0000A280CD0FCF7E8FA2168401AFF21F531D6
:103EE000884202D90F48FFF70BFF284670BD00201B
:103EF000034607E0E1680A5C0A2A01D00D2A00D1D6
:103F00000B54401C61688142F4DC0648802110306B
:103F1000FCF729F90348E1681030FCF73DF9014D41
:103F20001035DFE77C01002070B5040010D0014699
:103F300010A0FFF775FD13A12046FCF71FF900281C
:103F400006D1124D6878002803D011A0FFF768FD54
:103F500070BD012028700024A0B2FFF773FE024656
:103F6000214612A0FFF75CFD641CFF2CF4DD00204D
:103F7000287070BD72656365697665643A20257343
:103F80000A000000626F6264756D7000000000201E
:103F90006E6F20626F622063617373657474652055
:103FA0006465746563746564210A0000626F62640D
:103FB000756D702025642025640A00000000000053
:103FC00000000000010203040607080900000000C9
:103FD00001020304F43F0008000000207C010000FF
:103FE000D0010008B44000087C010020F41000005B
:103FF0006A3A0008C113F930140829311B08350446
:104000001A5D041A89041AD9141A05081704030939
:1040100004120114020202164083044057260201D2
:104020000203011365021B0861041A29041A89049A
:104030005193127A130A0632021A402B111C0902FC
:1040400043371125C03209041B01020B1305241646
:104050001001052401100901042402020524061799
:104060000107058203081C1009046D320A1D0705AB
:104070000102432C070581070938442A40072A8199
:1040800007112B0907440A2204440A16FF4413812E
:104090002E1408EB2D4C08812FF41A27101A9910B2
:1040A0001AB704C11A69181A5D041A75041A510462
:0440B000C10000004B
:04000005080000C12E
:00000001FF
